:100000000C949B010C9482050C94A2050C94C006E0
:100010000C9460060C94B8010C94B8010C94B801CF
:100020000C94B8010C94B8010C9481080C94B8019C
:100030000C94B8010C94E30E0C94B8010C94B80124
:100040000C94B8010C94B8010C94B8010C94B8014C
:100050000C94B8013502510279029702A002B9024C
:10006000DC024B05510557055D05630569056F0504
:10007000202020204A616E202D2046656C69782062
:100080002D20546F62696173202D204A756C69615F
:100090006E0A0A0053696D756C74616E656F7573D5
:1000A000206C6F63616C697A6174696F6E20616E38
:1000B00064206D617070696E670A002020202050F6
:1000C000657276617369766520436F6D70757469CA
:1000D0006E67202D2047726F757020380A005F5FB1
:1000E0005F5F5F5F5F5F7C3D3D3D7C5F5F5F5F5F4C
:1000F0005F5F5F5F5F7C3D3D3D7C5F5F5F5F5F5F3C
:100100005F5F0A0020202020202020207C3D3D3DF4
:100110007C5C5F5F5F5F5F5F5F5F2F7C3D3D3D7C31
:100120000A0020202020202020202F5F5F5F5C5FBE
:100130005F5F5F5F5F5F5F5F5F2F5F5F5F5C0A00B6
:100140002020202020202020205F5F5F2F5F5F5C29
:100150005F4F5F2F5F5F5F5C5F5F5F0A000A0A208F
:100160002020202020202020202020205F5F2E2DF6
:100170002D2D2E5F5F5F0A0054686520526F626FFD
:1001800074206E6565647320746F206265207265EB
:10019000736574746564206E6F772E0A0A00596F58
:1001A00075206E65656420746F20636865636B20DD
:1001B0004D6F746F7220617373656D626C79202866
:1001C0006F7220796F757220736F667477617265D4
:1001D000292E0A0A000A0A28732E207461736B5FA5
:1001E0006D6F746F72436F6E74726F6C2829206626
:1001F000756E6374696F6E20696E205250364C695B
:100200006221290A000A0A232323204D4F544F520A
:10021000204F56455243555252454E5420232323D6
:100220000A00596F75206E65656420746F206368DD
:1002300065636B20456E636F6465722F4D6F746FDD
:100240007220617373656D626C7920286F722079FA
:100250006F757220736F667477617265292E0A0A52
:1002600000210A0A28732E207461736B5F6D6F740E
:100270006F72436F6E74726F6C28292066756E639F
:1002800074696F6E20696E205250364C6962212964
:100290000A005249474854004C454654004166669E
:1002A0006563746564206368616E6E656C3A000A0C
:1002B00023232320454E434F44455220284F5220AC
:1002C0004D4F544F5229204D414C46554E435449B1
:1002D0004F4E21202323230A0023232323232041BD
:1002E0004C4C204F5045524154494F4E532053548B
:1002F0004F5050454420544F2050524556454E547F
:1003000020414E592044414D41474521202323237C
:1003100023230A000A0A232323232320454D455281
:1003200047454E43592053485554444F574E202378
:10033000232323230A0011241FBECFE5D8E0DEBF0C
:10034000CDBF11E0A0E6B0E0E0E4F8E202C0059025
:100350000D92A233B107D9F711E0A2E3B1E001C0D9
:100360001D92AD3EB107E1F70E94720F0C941E146E
:100370000C9400009091A3018091AC01992331F07D
:10038000882321F024E22093630102C010926301CC
:100390002091630190FB24F92093630121E09111E6
:1003A00020E09091630120FB93F980FB91F99093F9
:1003B000630191E0811190E08091630190FB80F9ED
:1003C000809363010C94A904CF93DF9320913E01A5
:1003D00030913F016217730759F070933F016093AA
:1003E0003E01EC018991882319F00E944A0EFACF50
:1003F000DF91CF910895909164018091C10199237B
:10040000B1F0882341F065E070E088E790E00E9459
:10041000E40181E019C080913D01823031F066E055
:1004200070E087E890E00E94E40183E00DC088233B
:1004300069F080913D01823031F067E070E085E93C
:1004400090E00E94E40185E080933D0108950895C5
:1004500080913D0190E0FC013197E730F10508F013
:10046000B1C0E65DFF4F0C94161184E6809338010D
:1004700080913A018C7F8160846080933A01209161
:100480004701243018F08CED90E002C080EA90E043
:1004900090933C0180933B0182E080933D012E5F6D
:1004A00043C020913A0122FD8DC084E6809338013B
:1004B00080914701843060F084E690E090933C01A5
:1004C00080933B01236020933A01109247010BC0B7
:1004D000822F8C7F826080933A0186E490E0909333
:1004E0003C0180933B0180913A01886080933A01FE
:1004F0005FC084E68093380180913A018C7F8160EF
:10050000846080933A0120914701243018F08EEBEB
:1005100090E002C086E990E090933C0180933B011B
:1005200084E080933D012F5F2093470108958091DF
:100530003A0182FD47C094E690933801836022C05F
:1005400084E68093380180913A018C7F81608460D9
:1005500080933A0120914701243018F08EEB90E00F
:1005600002C086E990E090933C0180933B0186E0D5
:10057000D8CF80913A0182FD25C094E6909338014E
:100580008C7F8260886080933A018091470184303B
:1005900048F08EE690E090933C0180933B011092EE
:1005A000470106C080E590E090933C0180933B01B9
:1005B00087E080933D01089580913A018C7011F499
:1005C00010923D01089580913701823009F466C090
:1005D00030F4882351F0813009F448C00895833005
:1005E000B9F0853009F488C008959091AC018091EC
:1005F000A301992321F0882349F083E004C08823D4
:1006000009F49AC082E080933701089581E0FBCF1E
:10061000909160009370809134018C7F892B80933E
:10062000340184E680933201809333018091A301E9
:10063000811182C08091AC0181117EC08091460100
:10064000843038F01092460110929901109298016E
:1006500006C080E991E09093990180939801809180
:10066000910188608093910185E0CDCF8091340124
:100670008C7F8093340184E6809332018093330130
:100680008091AC01882309F44AC08091A30188239A
:1006900019F083E08093370183E026C08091340114
:1006A0008C7F8093340184E6809332018093330100
:1006B0009091AC018091A301992329F0882329F01E
:1006C00093E09093370181110EC084EF91E09093F5
:1006D00099018093980180919101886080939101A4
:1006E00085E08093370182E080936000809146012D
:1006F0008F5F8093460108958091980190919901B0
:10070000893E9340C8F080919101877F8093910149
:10071000109299011092980110923701089584EF78
:1007200091E0909399018093980180919101886064
:100730008093910185E0AECF0895EF92FF920F93E1
:100740001F93CF93DF93CDB7DEB7E7970FB6F8943B
:10075000DEBF0FBECDBF8C01DC0113968D919C9145
:1007600014971296EC911297892B09F472C0E3FF4B
:100770002BC0E370F0E0EE0FFF1FEF59FF4F8181B8
:100780008F9380818F938C911F928F9384EA90E056
:100790009F938F93FE0131967F01FF92EF930E940A
:1007A0003D1161E070E0C7010E94E401D801139699
:1007B0004D915C91149712966C911297637020E0A2
:1007C0008C910E94900D3AC0E2FF3DC0E370F0E0D2
:1007D000EE0FFF1FEF59FF4F81818F9380818F9321
:1007E000D8018C911F928F938EEB90E09F938F9303
:1007F000FE0131967F01FF92EF930E943D1162E06E
:1008000070E0C7010E94E401D80113966D917C91BC
:10081000149780E090E00E9443102FE832EC45E707
:100820005EE30E94AF0F0E941710F801328133700F
:1008300020E0AB01632F80810E94F60C0FB6F89484
:10084000DEBF0FBECDBFD80114961C921E92139727
:1008500047C08E2F8C7091F5E370F0E0EE0FFF1F14
:10086000EF59FF4F81818F9380818F93F8018181B0
:100870001F928F9380811F928F9388ED90E09F93BA
:100880008F93CE0101967C01FF928F930E943D11C0
:1008900063E070E0C7010E94E401D80112968C91D8
:1008A00083700E94D805F801618180810E94C7058C
:1008B0000FB6F894DEBF0FBECDBF12C00E94FC057C
:1008C000882371F064E070E087E091E00E94E40129
:1008D000D80112968C911297877F8B7F12968C93FA
:1008E000E7960FB6F894DEBF0FBECDBFDF91CF9174
:1008F0001F910F91FF90EF9008950E94E3020E94D4
:10090000280280913D01882319F088E391E010C00E
:1009100080913701882319F082E391E009C080912A
:100920006E00882319F089E690E002C080E491E02F
:100930000C949D0308950895089508958091780179
:10094000843010F010927801089584E0809378014B
:10095000089587B38C7787BB88B38C7788BB8091E9
:10096000630183FF02C0BF9AC79A8091630184FF2D
:1009700002C0B99AC19A8091630185FF02C0B89AFA
:10098000C09A84B38F7884BB85B38F7885BB24B33A
:100990008091630130E1839FC00111248077822B15
:1009A00084BB25B38091630130E1839FC001112492
:1009B0008077822B85BB80917801811106C081E010
:1009C00090916301911101C080E0809378010895B6
:1009D000809363010C94A904C098B898000086B372
:1009E00081709091630195FF02C0B89AC09A0895F2
:1009F000AE98A698000083B380749091630192FF33
:100A000002C0A69AAE9A08959093770080937600DC
:100A10000895CF938091B0018333C0F00E94EC041D
:100A2000C82F0E94F804909164019C1304C0909117
:100A3000C101981749F0C09364018093C101E0910E
:100A40007600F091770009951092B001CF9108954A
:100A500036990AC0806487B986ED86B93699FECF8B
:100A6000349A84B195B1089580E090E0089580644F
:100A700087B986ED86B90895369943C080915901AA
:100A800090E08730910598F5FC01EF5CFF4F84B151
:100A900095B10C9416119093C5018093C40186E41E
:100AA00023C09093CA018093C90185E41DC090932F
:100AB000BB018093BA0183E417C0909384018093B3
:100AC000830182E411C09093AA018093A90180E47C
:100AD0000BC09093B8018093B70181E405C0909357
:100AE00082018093810187E487B986ED86B9809180
:100AF0005901863019F41092590108958F5F80933F
:100B0000590108951F920F920FB60F9211248F93DF
:100B10009F938091BF019091C00101969093C00175
:100B20008093BF018091B5019091B6010196909399
:100B3000B6018093B5019F918F910F900FBE0F90DA
:100B40001F9018951F920F920FB60F9211248F933A
:100B50009F938091B1019091B20101969093B2015F
:100B60008093B10180918B0190918C0101969093BB
:100B70008C0180938B019F918F910F900FBE0F90EE
:100B80001F90189590937500809374000895893C88
:100B900008F088EC90E090936A0180936901693CC9
:100BA00008F068EC70E07093680160936701089545
:100BB000809348012FEF280F91E0223008F090E059
:100BC00090934C018D7F91E0813009F090E09093FB
:100BD0004B010895292F221F2227221F20934C0109
:100BE000771F7727771F70934B011816190614F09B
:100BF000819561950C94C70590916201937081E095
:100C000009F080E0089510926A0110926901109233
:100C10006801109267011092740110927301109292
:100C2000AF011092AE01809162018E7F8D7F809323
:100C300062018093C301E0917400F0917500099402
:100C4000633D08F062ED70E070938A016093890162
:100C5000833D08F082ED90E090937A0180937901D2
:100C6000089580934A016093490180934C016093F9
:100C70004B01882311F0AA9A01C0AA98662311F0AB
:100C8000AB9A0895AB98089590916E01992321F045
:100C900099B7906899BFF8CF6F7370E070638F73E6
:100CA00020E4829FC0011124682B792B70938E0160
:100CB00060938D0180916D01806480936D01089532
:100CC0001F920F920FB60F9211248F939F938091D2
:100CD00073008230B0F5809158018823D1F08C33B5
:100CE00038F48091A7019091A80196FF07C008C031
:100CF0008091A7019091A80196FF02C0979803C028
:100D000082B3805882BB80915801815080935801F2
:100D100030C080916E019798882359F18091A70186
:100D20009091A801880F991F9093A8018093A70123
:100D300088E78093580180916E01815080936E0105
:100D400018C080917201882391F080916D0180FD1F
:100D500005C088B390E4892788BB03C085B3805859
:100D600085BB8091720181508093720102C0C69A46
:100D7000AF9A9F918F910F900FBE0F901F90189573
:100D80001F920F920FB60F9211248F9380917300D0
:100D9000833011F0863079F480916D0184FD0BC0B1
:100DA00080916D0185FF07C0B29905C08091C20195
:100DB0008F5F8093C20186B380916D018D7F809398
:100DC0006D018F910F900FBE0F901F90189590930B
:100DD00072008093710008959093700080936F006B
:100DE00008958091850190918601029708F43CC195
:100DF00080916D0184FD19C180917300823009F4E6
:100E000067C028F4882369F0813091F014C18530DF
:100E100009F4AFC0863009F4C5C0833009F00BC1B6
:100E20006FC089B78F7789BF9798C69AAF9A03C169
:100E300080916E0181112AC080916D0186FF14C0DE
:100E400080918D0190918E019093A8018093A701CC
:100E50008EE080936E0180916D018F7B80936D0198
:100E600089B7806889BF06C089B78F7789BF97988F
:100E7000C69AAF9A8091570191E0980F90935701CD
:100E8000843138F082E08093730003C089B78068B2
:100E900089BF80916D0183FFCEC0E0917100F09118
:100EA00072008091C6019091C70109958091C60199
:100EB0009091C70190937601809375011092C701BC
:100EC0001092C60180916D01877F80936D01B3C040
:100ED00089B78F7789BF9798C69AAF9A1092720197
:100EE0001092C201109256011092550180916D012D
:100EF0008E7F806280936D0183E08093570177C07D
:100F000080917201811110C08091570191E0980F7A
:100F100090935701833040F089B7806889BF88E299
:100F200080937201109257018091A301882321F0D0
:100F30008091C201823020F48091C201863038F065
:100F40001092C20181E08093A30185E050C080919E
:100F50005501909156019C012F5F3F4F30935601F0
:100F6000209355010E9708F466C01092A30185E006
:100F700051C089B78F7789BF9798C69AAF9A109258
:100F800072011092C2011092560110925501809187
:100F90006D018160806280936D0183E080935701D1
:100FA00086E025C080917201811110C080915701A7
:100FB00091E0980F90935701833040F089B7806893
:100FC00089BF88E280937201109257018091AC0131
:100FD000882321F08091C201823020F48091C201E7
:100FE000863040F01092C20181E08093AC01809382
:100FF000730021C080915501909156019C012F5F93
:101000003F4F30935601209355010E97A0F0109258
:10101000AC0181E08093730089B78F7789BF97987F
:10102000C69AAF9A1092720106C0109256011092A1
:101030005501109257019091A30120915401809184
:10104000AC01291304C020915301281749F0909353
:10105000540180935301E0916F00F0917000099565
:10106000109286011092850108951092730089B73D
:101070008F7789BF9798C69AAF9A1092AC01109259
:10108000A301089589B78F7789BF9798C69AAF9AB9
:101090001092AC011092A30181E080937300089537
:1010A0008E989698BB98C398C698AF9808958E9AD4
:1010B000969ABB98C39808958E989698BB9AC39AAF
:1010C00008958E9A969ABB9AC39A0895C49A80916D
:1010D0007801843018F483E0809378010895C498EF
:1010E00080917801843060F4811107C081E0909193
:1010F0006301911103C080E001C081E08093780119
:1011000008951F920F920FB60F9211242F933F93C1
:101110004F935F936F937F938F939F93AF93BF93FF
:10112000809160019091610101969093610180939B
:1011300060018091B9018F5F8093B9018091BC01FA
:1011400091E0980F9093BC01893008F447C18091D9
:10115000910180FF09C080919201909193010196C5
:1011600090939301809392018091910181FF09C036
:1011700080919401909195010196909395018093AF
:1011800094018091910182FF09C080919601909114
:101190009701019690939701809396018091910118
:1011A00083FF09C0809198019091990101969093D5
:1011B0009901809398018091910184FF09C08091E9
:1011C0009A0190919B01019690939B0180939A01C3
:1011D0008091910185FF09C080919C0190919D01B2
:1011E000019690939D0180939C018091910186FFCF
:1011F00009C080919E0190919F01019690939F015B
:1012000080939E018091910187FF09C08091A00188
:101210009091A10101969093A1018093A0018091EA
:10122000AD0191E0980F9093AD01893CE8F0809179
:101230008B0190918C019093BE018093BD018091B0
:10124000B5019091B60190937C0180937B0110923F
:101250008C0110928B011092B6011092B50181E0C1
:10126000809377011092AD0140917801433008F0EE
:1012700052C0423081F580916301811120C080917C
:101280005101909152019C012F5F3F4F30935201C9
:101290002093510168EC70E00E94E010892BD9F591
:1012A000213A3F4028F0B998C1981092780129C09E
:1012B00087B3842787BB88B3842788BB2CC084FD71
:1012C00002C0B998C198109252011092510181E068
:1012D0008093780120C08091510190915201813E0C
:1012E0002EE2920798F0413049F4109278018091F3
:1012F000630184FD06C0B998C19803C082E0809361
:101300007801109252011092510105C001969093FC
:10131000520180935101809185019091860103973C
:1013200048F4809185019091860101969093860101
:10133000809385018091A501873318F48F5F809396
:10134000A5018091B001843328F48091B0018F5FB2
:101350008093B0018091AB0191E0980F9093AB0125
:101360008330D0F14091A601242F30E08091890193
:1013700090918A012817390759F02817390714F472
:101380004F5F01C041504093A6018091A6018ABDE4
:101390004091C801242F30E08091790190917A0129
:1013A0002817390759F02817390714F44F5F01C07F
:1013B00041504093C8018091C80188BD8091C80107
:1013C000811104C08091A601882319F082EA8FBDA3
:1013D00001C01FBC1092AB011092BC0130916D0195
:1013E00033FD47C080914F019091500120914E01F3
:1013F0002F5F20934E01263198F096FD0AC095FF8D
:1014000008C09093C7018093C601832F88608093A2
:101410006D0180916D018F7E80936D0180E090E081
:1014200040914D0136B3342732FF1FC0342F309521
:1014300030934D01273040F480916D018F7E809371
:101440006D0180E090E004C0009711F02F3068F04B
:1014500020916D01206120936D0196FD02C0880FDF
:10146000991F32FF816010924E019093500180933A
:101470004F01BF91AF919F918F917F916F915F913C
:101480004F913F912F910F900FBE0F901F90189585
:101490001092B9019091B9019817E0F30895CF9394
:1014A000DF93EC01209729F08AE00E94480A2197F7
:1014B000F9CFDF91CF910895019710F00000FCCF94
:1014C0000895C82FF89497980E94500810927A01B6
:1014D0001092790110928A01109289011092740180
:1014E000109273011092AF011092AE011092C801D8
:1014F0001092A6011ABC18BC1FBC0E946F0884E1A0
:1015000093E00E945A0E89ED92E00E945A0E8FEFEE
:101510008C0F8230C0F48FEA92E00E945A0E8DE95F
:1015200092E00E945A0EC13019F488E992E002C09C
:1015300082E992E00E945A0E81E692E00E945A0EE1
:1015400082E292E00CC0C33061F485E092E00E9438
:101550005A0E85ED91E00E945A0E8EE991E00E94AC
:101560005A0E88E791E00E945A0ED6E3D0936301A9
:101570000E94A904CAE080E090E80E945C0AC15081
:10158000D1F7109263010E94A904CAE08FEF9FEF88
:101590000E945C0AC150D1F7E9CF8091A501823346
:1015A00008F475C01092A5012091A2018091C90193
:1015B0009091CA0121113CC040916201833023E027
:1015C000920738F42091BA013091BB0123303340A7
:1015D000E0F08091A4018F5F8093A4018AE0809362
:1015E000A20110927A011092790110928A01109250
:1015F000890110927401109273011092AF01109240
:10160000AE014460409362010895242F2B7F209304
:10161000620120916F01253628F01092A4011092EA
:101620006F0106C02091A401233010F083E014C0A4
:101630008639910598F480917B0190917C01892BEA
:1016400069F48091690190916A01892B39F0809148
:10165000C801873918F081E00E94610A8091BA01BF
:101660009091BB018639910590F48091BD019091D4
:10167000BE01892B61F48091670190916801892BEB
:1016800031F08091A601873910F082E0E5CF80919A
:101690007701882309F48EC18091A201811185C14F
:1016A0008091A401882331F080916F018F5F809336
:1016B0006F0102C010926F014091620141FF39C079
:1016C0002091BF013091C001809165019091660128
:1016D0002817390788F010926A0110926901109258
:1016E00074011092730110927A0110927901842F83
:1016F0008D7F809362011DC02091BF013091C00198
:1017000080917D0190917E012817390790F080919A
:10171000690190916A019695879590936A018093EB
:101720006901469730F486E190E090936A018093D6
:1017300069014091620140FF39C02091B1013091AF
:10174000B20180918701909188012817390788F0AC
:1017500010926801109267011092AF011092AE01D1
:1017600010928A0110928901842F8E7F80936201EA
:101770001DC02091B1013091B2018091B3019091CF
:10178000B4012817390790F08091670190916801A2
:10179000969587959093680180936701469730F4FA
:1017A00086E190E0909368018093670180914C01FD
:1017B00090914A01891307C020914B0190914901F2
:1017C000291709F451C04091690150916A01209193
:1017D0006701309168014115510519F42115310552
:1017E00001F150936C0140936B0130938001209381
:1017F0007F0110926A0110926901109268011092A3
:10180000670110928A011092890110927A01109258
:10181000790110927401109273011092AF0110922D
:10182000AE019FB5911120C060914B010E9431061D
:1018300020916B0130916C0130936A012093690112
:1018400080917F019091800190936801809367015E
:10185000369527953093740120937301969587955B
:101860009093AF018093AE012091690130916A019C
:1018700080917B0190917C01A901481B590BCA0101
:101880004091730150917401840F951F853A51E086
:10189000950714F084EA91E09093740180937301AA
:1018A00080917301909174018C359E4F34F48CE5D6
:1018B0009EEF909374018093730180917B019091CE
:1018C0007C01892B31F4232B21F4109274011092A6
:1018D0007301809173019091740197FD0196959524
:1018E0008795833D910514F082ED90E090937A0105
:1018F000809379018091790190917A0197FF04C0DA
:1019000010927A011092790120916701309168015B
:101910008091BD019091BE01A901481B590BCA01DC
:101920004091AE015091AF01840F951F853A51E06F
:10193000950714F084EA91E09093AF018093AE0193
:101940008091AE019091AF018C359E4F34F48CE5BF
:101950009EEF9093AF018093AE018091BD01909175
:10196000BE01892B31F4232B21F41092AF01109288
:10197000AE018091AE019091AF0197FD01969595D2
:101980008795833D910514F082ED90E090938A0154
:10199000809389018091890190918A0197FF08C005
:1019A00010928A011092890103C081508093A20194
:1019B00010927701809162019091C301981739F0DC
:1019C0008093C301E0917400F0917500099408952B
:1019D000D49ADC9A0895DC98D49808950E943C0526
:1019E0000E94F1060E9409050C94CD0AEF92FF9225
:1019F0001F93CF93DF931F92CDB7DEB7162F7A01D7
:101A00009091620191609260909362011092B40192
:101A10001092B30110927E0110927D01873180F007
:101A200046EF5FEF481B5109440F551F4E0D5F1DD8
:101A30005093B4014093B30150937E0140937D01D4
:101A4000A701425051095093880140938701509358
:101A500066014093650198E2E916F104C0F444E19F
:101A600050E0509388014093870150936601409362
:101A700065014AE050E05093B4014093B3015093A4
:101A80007E0140937D01A8E2EA2EF12C05C0E0E939
:101A9000EE16E1E0FE0698F4893288F0A70156952B
:101AA000479556954795C701841B950B9093B401B4
:101AB0008093B30190937E0180937D0188E2109220
:101AC000C0011092BF011092B2011092B101682FB3
:101AD00029830E94C705812F0E94D805F0929001AA
:101AE000E0928F01F0927101E092700180916201A9
:101AF0008093C301E0917400F091750009952981EC
:101B0000222339F00E94FC05811103C00E94EE0CD3
:101B1000F9CF0F90DF91CF911F91FF90EF90089533
:101B2000FF920F931F93CF93DF93182FF62E022F60
:101B30008091620181608260809362019A01A0EBD2
:101B4000B2E00E94D11024E630E040E050E00E9474
:101B5000F410E901C901845691099093B40180936E
:101B6000B30190937E0180937D013093880120938F
:101B70008701309366012093650128323105B0F466
:101B800044E150E0509388014093870150936601EF
:101B9000409365014AE050E05093B4014093B30193
:101BA00050937E0140937D01C8E2D0E0612F812FE8
:101BB0000E94C7058F2D0E94D8051092C001109277
:101BC000BF011092B2011092B101D0939001C09365
:101BD0008F01D0937101C093700180916201809355
:101BE000C301E0917400F09175000995002339F06C
:101BF0000E94FC05811103C00E94EE0CF9CFDF9119
:101C0000CF911F910F91FF9008951BBA18BA15BA82
:101C100081E082BB1ABA88E587BB8CE884BB82EF7F
:101C200081BBF894C598BD9A97980E94500810BC43
:101C30008CE089B91BB886E880BD88E98AB917B8F5
:101C400086E186B910BE85E085BF80EE8BBF14BEED
:101C50008AE083BF83E68CBF82EA8FBD81E18EBDBF
:101C600082ED90E097BD86BD1ABC18BC60E080E0B4
:101C70000E94310689E085BD8EE683BD82E089BF82
:101C800080916D01816080936D0181E0809373008C
:101C9000789408955D9BFECF8CB90895CF93DF9320
:101CA000EC018991882319F00E944A0EFACFDF9146
:101CB000CF910895CF93DF93FC018491EF0121969A
:101CC000882321F00E944A0EFE01F7CFDF91CF91C9
:101CD00008950F931F93CF93DF931F92CDB7DEB775
:101CE0008C01040F111DF80181918F01882341F0AF
:101CF000662331F069830E944A0E69816150F3CFF7
:101D00000F90DF91CF911F910F910895CF93DF93A3
:101D1000CDB7DEB761970FB6F894DEBF0FBECDBF6B
:101D2000462F50E0BE016F5F7F4F0E941C11CE0115
:101D300001960E944E0E61960FB6F894DEBF0FBE5C
:101D4000CDBFDF91CF910895EF92FF920F931F9334
:101D5000CF93DF93CDB7DEB761970FB6F894DEBFB0
:101D60000FBECDBFE42E462F50E08E010F5F1F4FF8
:101D7000B8010E941C11F80101900020E9F7319789
:101D8000E01BF10BFE2CFE1A1F1454F4FA9480E3AE
:101D90000E944A0EF110FACFC8010E944E0E06C0F2
:101DA0004F2D41956E2DC8010E94690E61960FB6A8
:101DB000F894DEBF0FBECDBFDF91CF911F910F9181
:101DC000FF90EF9008951F920F920FB60F9211247B
:101DD0002F938F939F93EF93FF9390915A0180914C
:101DE0005B01292F281B2032A8F4E0915C0181E0DF
:101DF0008E0F80935C01F0E02CB1E453FE4F208302
:101E00009F5F90935A01813210F010925C01109202
:101E1000CB0106C08CB180935F0181E08093CB0140
:101E2000FF91EF919F918F912F910F900FBE0F9087
:101E30001F9018951092CB0180915B0190915A01EF
:101E40009817A1F08F5F80935B0180915D018132D3
:101E500010F010925D01E0915D0181E08E0F8093A2
:101E60005D01F0E0E453FE4F8081089580E0089525
:101E70001092CB01282FFC018E2F821B90915B01C9
:101E800030915A013917B9F08617A8F49F5F9093E3
:101E90005B01A0915D0181E08A0F80935D01B0E05C
:101EA000A453BE4F8C91819380915D01813220F3C8
:101EB00010925D01E1CF089580915A0190915B01EC
:101EC000891B089557988CB180935E0110925D0133
:101ED00010925C0110925B0110925A011092CB019A
:101EE000579A08950E94050E8DE591E00E945A0EC2
:101EF00080E491E00E945A0E82E291E00E945A0E24
:101F000084E091E00E945A0E8EED90E00E945A0EFD
:101F10008BEB90E00E945A0E84E990E00E945A0EEA
:101F200080E790E00E945A0E8FE30E94E80484EC60
:101F300099E00E944F0A84E20E94E8048BEF91E04E
:101F40000E9404058AEB91E00E94EC060E9466085C
:101F50000E945C080E947D040E94EE0CFBCF0CD016
:101F6000E6C0DED040F0D5D030F021F45F3F19F06C
:101F7000C7C0511110C1CAC0EBD098F39923C9F35F
:101F80005523B1F3951B550BBB27AA27621773077F
:101F9000840738F09F5F5F4F220F331F441FAA1F33
:101FA000A9F333D00E2E3AF0E0E830D091505040F3
:101FB000E695001CCAF729D0FE2F27D0660F771FA1
:101FC000881FBB1F261737074807AB07B0E809F083
:101FD000BB0B802DBF01FF2793585F4F2AF09E3F18
:101FE000510568F08DC0D7C05F3FECF3983EDCF33D
:101FF000869577956795B795F7959F5FC9F7880F91
:10200000911D9695879597F90895E1E0660F771FE2
:10201000881FBB1F621773078407BA0720F0621B73
:10202000730B840BBA0BEE1F88F7E095089598D0D8
:1020300088F09F5790F0B92F9927B751A0F0D1F0B1
:10204000660F771F881F991F1AF0BA95C9F712C03B
:10205000B13081F09FD0B1E008959CC0672F782FF8
:102060008827B85F39F0B93FCCF3869577956795A7
:10207000B395D9F73EF490958095709561957F4F13
:102080008F4F9F4F0895E89409C097FB3EF49095B9
:102090008095709561957F4F8F4F9F4F9923A9F041
:1020A000F92F96E9BB279395F695879577956795D0
:1020B000B795F111F8CFFAF4BB0F11F460FF1BC014
:1020C0006F5F7F4F8F4F9F4F16C0882311F096E9A7
:1020D00011C0772321F09EE8872F762F05C0662355
:1020E00071F096E8862F70E060E02AF09A95660F0E
:1020F000771F881FDAF7880F9695879597F90895C7
:1021000097F99F6780E870E060E008959FEF80ECAA
:10211000089500240A94161617061806090608954D
:1021200000240A9412161306140605060895092EB3
:102130000394000C11F4882352F0BB0F40F4BF2B22
:1021400011F460FF04C06F5F7F4F8F4F9F4F089562
:1021500057FD9058440F551F59F05F3F71F0479558
:10216000880F97FB991F61F09F3F79F0879508953D
:10217000121613061406551FF2CF4695F1DF08C05C
:10218000161617061806991FF1CF86957105610579
:1021900008940895E894BB2766277727CB0197F921
:1021A0000895A29FB001B39FC001A39F700D811D30
:1021B0001124911DB29F700D811D1124911D089550
:1021C000AA1BBB1B51E107C0AA1FBB1FA617B7075D
:1021D00010F0A61BB70B881F991F5A95A9F7809579
:1021E0009095BC01CD010895A1E21A2EAA1BBB1B3C
:1021F000FD010DC0AA1FBB1FEE1FFF1FA217B307D3
:10220000E407F50720F0A21BB30BE40BF50B661FE8
:10221000771F881F991F1A9469F7609570958095AC
:1022200090959B01AC01BD01CF010895EE0FFF1FFA
:102230000590F491E02D0994FB019F01E894423050
:10224000C4F04532B4F44A3029F497FB1EF490955B
:1022500081959F4F642F77270E94E010805D8A331D
:102260000CF0895D8193CB010097A1F716F45DE234
:1022700051931082C9010C944713AEE0B0E0E3E43F
:10228000F1E10C94F5130D891E8986E08C831A8385
:1022900009838FEF9FE79E838D83AE01475E5F4F7B
:1022A0006F89788DCE0101960E945F11EF81F885CC
:1022B000E00FF11F10822E96E4E00C941114ACE0B4
:1022C000B0E0E5E6F1E10C94E7137C016B018A01D3
:1022D000FC0117821682838181FFBDC1CE01019668
:1022E0004C01F7019381F60193FD859193FF819154
:1022F0006F01882309F4ABC1853239F493FD8591D0
:1023000093FF81916F01853229F4B70190E00E941B
:102310005713E7CF512C312C20E02032A0F48B3220
:1023200069F030F4803259F0833269F420612CC0B6
:102330008D3239F0803339F4216026C02260246068
:1023400023C0286021C027FD27C030ED380F3A3068
:1023500078F426FF06C0FAE05F9E300D1124532E5C
:1023600013C08AE0389E300D1124332E20620CC039
:102370008E3221F426FD6BC1206406C08C3611F428
:10238000206802C0883641F4F60193FD859193FFE1
:1023900081916F018111C1CF982F9F7D955493300A
:1023A00028F40C5F1F4FFFE3F9830DC0833631F033
:1023B000833771F0833509F05BC022C0F80180815A
:1023C00089830E5F1F4F44244394512C540115C040
:1023D0003801F2E06F0E711CF801A080B18026FF79
:1023E00003C0652D70E002C06FEF7FEFC5012C8741
:1023F0000E943C132C0183012C852F77222E17C0BD
:102400003801F2E06F0E711CF801A080B18026FF48
:1024100003C0652D70E002C06FEF7FEFC5012C8710
:102420000E9431132C012C852068222E830123FC6D
:102430001BC0832D90E048165906B0F4B70180E226
:1024400090E00E9457133A94F4CFF50127FC859150
:1024500027FE81915F01B70190E00E945713311070
:102460003A94F1E04F1A51084114510471F7E5C054
:10247000843611F0893639F5F80127FF07C06081ED
:102480007181828193810C5F1F4F08C060817181CF
:10249000882777FD8095982F0E5F1F4F2F76B22EDD
:1024A00097FF09C090958095709561957F4F8F4FEC
:1024B0009F4F2068B22E2AE030E0A4010E948913C9
:1024C000A82EA81844C0853729F42F7EB22E2AE002
:1024D00030E025C0F22FF97FBF2E8F36C1F018F4FF
:1024E000883579F0B4C0803719F0883721F0AFC053
:1024F0002F2F2061B22EB4FE0DC08B2D8460B82E1C
:1025000009C024FF0AC09F2F9660B92E06C028E09C
:1025100030E005C020E130E002C020E132E0F80107
:10252000B7FE07C060817181828193810C5F1F4F6C
:1025300006C06081718180E090E00E5F1F4FA401B2
:102540000E948913A82EA818FB2DFF77BF2EB6FE78
:102550000BC02B2D2E7FA51450F4B4FE0AC0B2FC84
:1025600008C02B2D2E7E05C07A2C2B2D03C07A2C73
:1025700001C0752C24FF0DC0FE01EA0DF11D808104
:10258000803311F4297E09C022FF06C0739473942E
:1025900004C0822F867809F0739423FD13C020FFB6
:1025A00006C05A2C731418F4530C5718732C731458
:1025B00068F4B70180E290E02C870E94571373946F
:1025C0002C85F5CF731410F4371801C0312C24FF7B
:1025D00012C0B70180E390E02C870E9457132C852E
:1025E00022FF17C021FF03C088E590E002C088E702
:1025F00090E0B7010CC0822F867859F021FD02C00F
:1026000080E201C08BE227FD8DE2B70190E00E94DD
:102610005713A51438F4B70180E390E00E945713D4
:102620005A94F7CFAA94F401EA0DF11D8081B70105
:1026300090E00E945713A110F5CF332009F451CE3A
:10264000B70180E290E00E9457133A94F6CFF70169
:102650008681978102C08FEF9FEF2C96E2E10C9468
:102660000314FC010590615070400110D8F780956B
:1026700090958E0F9F1F0895FC016150704001904E
:102680000110D8F7809590958E0F9F1F0895DC015B
:10269000FC01672F71917723E1F7329704C07C9199
:1026A0006D9370836291AE17BF07C8F308950F93BF
:1026B0001F93CF93DF93182F092FEB018B8181FD9F
:1026C00003C08FEF9FEF20C082FF10C04E815F815B
:1026D0002C813D81421753077CF4E881F9819F01E9
:1026E0002F5F3F4F39832883108306C0E885F98523
:1026F000812F0995892B29F72E813F812F5F3F4F2D
:102700003F832E83812F902FDF91CF911F910F91C7
:102710000895FA01AA27283051F1203181F1E89477
:102720006F936E7F6E5F7F4F8F4F9F4FAF4FB1E0C4
:102730003ED0B4E03CD0670F781F891F9A1FA11DBF
:10274000680F791F8A1F911DA11D6A0F711D811DC0
:10275000911DA11D20D009F468943F912AE0269F85
:1027600011243019305D3193DEF6CF010895462FE4
:102770004770405D4193B3E00FD0C9F7F6CF462FC5
:102780004F70405D4A3318F0495D31FD405241932E
:1027900002D0A9F7EACFB4E0A695979587957795EB
:1027A0006795BA95C9F700976105710508959B0172
:1027B000AC010A2E06945795479537952795BA95FB
:1027C000C9F7620F731F841F951FA01D08952F92D4
:1027D0003F924F925F926F927F928F929F92AF92B1
:1027E000BF92CF92DF92EF92FF920F931F93CF93FE
:1027F000DF93CDB7DEB7CA1BDB0B0FB6F894DEBF95
:102800000FBECDBF09942A88398848885F846E84BA
:102810007D848C849B84AA84B984C884DF80EE8004
:10282000FD800C811B81AA81B981CE0FD11D0FB60D
:10283000F894DEBF0FBECDBFED010895F894FFCF31
:10284000021E01220126012B01F4F4000000019D6B
:10285000049C04019B049A042020204553433A2001
:1028600046726F6E740A002020204553433A204C74
:102870006566740A002020204553433A2052696758
:1028800068740A00726F746174653A20256420735D
:10289000706565643B202573206469723B002020CD
:1028A0006D6F76653A2025642073706565643B2002
:1028B0002573206469723B0020206D6F76653A2095
:1028C00025642073706565642D6C6566743B2025F6
:1028D000642073706565642D72696768743B202598
:1028E00073206469720A00202D3E206D6F76656D3D
:1028F000656E7420636F6D706C6574650A00465771
:102900004400425744004C454654005249474854FD
:022910000000C5
:00000001FF
