:100000000C94BD010C9458050C9478050C9496063C
:100010000C9436060C94DA010C94DA010C94DA0193
:100020000C94DA010C94DA010C9457080C94DA0160
:100030000C94DA010C94B90E0C94DA010C94DA01E8
:100040000C94DA010C94DA010C94DA010C94DA01C4
:100050000C94DA01460262028A02A802B102CA02C4
:10006000ED02210527052D05330539053F05450519
:10007000202020204A616E202D2046656C69782062
:100080002D20546F62696173202D204A756C69615F
:100090006E0A0A0053696D756C74616E656F7573D5
:1000A000206C6F63616C697A6174696F6E20616E38
:1000B00064206D617070696E670A002020202050F6
:1000C000657276617369766520436F6D70757469CA
:1000D0006E67202D2047726F757020380A005F5FB1
:1000E0005F5F5F5F5F5F7C3D3D3D7C5F5F5F5F5F4C
:1000F0005F5F5F5F5F7C3D3D3D7C5F5F5F5F5F5F3C
:100100005F5F0A0020202020202020207C3D3D3DF4
:100110007C5C5F5F5F5F5F5F5F5F2F7C3D3D3D7C31
:100120000A0020202020202020202F5F5F5F5C5FBE
:100130005F5F5F5F5F5F5F5F5F2F5F5F5F5C0A00B6
:100140002020202020202020205F5F5F2F5F5F5C29
:100150005F4F5F2F5F5F5F5C5F5F5F0A000A0A208F
:100160002020202020202020202020205F5F2E2DF6
:100170002D2D2E5F5F5F0A00202D3E206D6F76656E
:100180006D656E7420636F6D706C6574650A002018
:1001900020204553433A2052696768740A002020A2
:1001A000204553433A204C6566740A0020202045C0
:1001B00053433A2046726F6E740A005468652052A9
:1001C0006F626F74206E6565647320746F20626562
:1001D000207265736574746564206E6F772E0A0AE9
:1001E00000596F75206E65656420746F20636865C3
:1001F000636B204D6F746F7220617373656D626CF9
:100200007920286F7220796F757220736F6674770A
:10021000617265292E0A0A000A0A28732E20746169
:10022000736B5F6D6F746F72436F6E74726F6C2857
:10023000292066756E6374696F6E20696E20525056
:10024000364C696221290A000A0A232323204D4FD4
:10025000544F52204F56455243555252454E54200A
:100260002323230A00596F75206E65656420746F1F
:1002700020636865636B20456E636F6465722F4D04
:100280006F746F7220617373656D626C7920286F73
:100290007220796F757220736F6674776172652949
:1002A0002E0A0A00210A0A28732E207461736B5FDC
:1002B0006D6F746F72436F6E74726F6C2829206655
:1002C000756E6374696F6E20696E205250364C698A
:1002D0006221290A005249474854004C45465400BF
:1002E0004166666563746564206368616E6E656C03
:1002F0003A000A23232320454E434F4445522028E9
:100300004F52204D4F544F5229204D414C46554E8F
:100310004354494F4E21202323230A002323232320
:100320002320414C4C204F5045524154494F4E538D
:100330002053544F5050454420544F20505245565E
:10034000454E5420414E592044414D4147452120BE
:1003500023232323230A000A0A23232323232045BC
:100360004D455247454E43592053485554444F57E5
:100370004E2023232323230A000011241FBECFE590
:10038000D8E0DEBFCDBF10E0A0E6B0E0ECEEF7E2D3
:1003900002C005900D92A03CB107D9F711E0A0EC86
:1003A000B0E001C01D92A937B107E1F70E94480FE4
:1003B0000C94F4130C94000090912F01809138015B
:1003C000992331F0882321F024E22093EF0002C02A
:1003D0001092EF002091EF0090FB24F92093EF00A2
:1003E00021E0911120E09091EF0020FB93F980FB38
:1003F00091F99093EF0091E0811190E08091EF00EE
:1004000090FB80F98093EF000C947F049091F000B2
:1004100080914D01992391F0882331F08CEA91E08D
:100420000E94300E81E015C08091CB00823021F017
:100430008EE991E00E94300E83E00BC0882359F0D2
:100440008091CB00823021F08FE891E00E94300E45
:1004500085E08093CB000895CF93DF93EC018991E1
:10046000882319F00E94200EFACFDF91CF910895D2
:1004700008958091CB0090E0FC013197E730F105C1
:1004800008F0B1C0E65DFF4F0C94EC1084E6809359
:10049000C6008091C8008C7F816084608093C80012
:1004A0002091D300243018F08CED90E002C080EA57
:1004B00090E09093CA008093C90082E08093CB00C3
:1004C0002E5F43C02091C80022FD8DC084E680933A
:1004D000C6008091D300843060F084E690E0909371
:1004E000CA008093C90023602093C8001092D300F3
:1004F0000BC0822F8C7F82608093C80086E490E0DE
:100500009093CA008093C9008091C800886080934E
:10051000C8005FC084E68093C6008091C8008C7FCD
:10052000816084608093C8002091D300243018F04B
:100530008EEB90E002C086E990E09093CA00809331
:10054000C90084E08093CB002F5F2093D3000895EF
:100550008091C80082FD47C094E69093C6008360F6
:1005600022C084E68093C6008091C8008C7F8160A1
:1005700084608093C8002091D300243018F08EEB63
:1005800090E002C086E990E09093CA008093C90091
:1005900086E0D8CF8091C80082FD25C094E6909374
:1005A000C6008C7F826088608093C8008091D300F1
:1005B000843048F08EE690E09093CA008093C900A2
:1005C0001092D30006C080E590E09093CA0080931B
:1005D000C90087E08093CB0008958091C8008C709B
:1005E00011F41092CB0008958091C500823009F477
:1005F00066C030F4882351F0813009F448C0089572
:100600008330B9F0853009F488C00895909138019D
:1006100080912F01992321F0882349F083E004C0C1
:10062000882309F49AC082E08093C500089581E090
:10063000FBCF9091600093708091C2008C7F892BDA
:100640008093C20084E68093C0008093C1008091B3
:100650002F01811182C08091380181117EC080916B
:10066000D200843038F01092D200109225011092FE
:10067000240106C080E991E0909325018093240134
:1006800080911D01886080931D0185E0CDCF809110
:10069000C2008C7F8093C20084E68093C000809368
:1006A000C10080913801882309F44AC080912F014C
:1006B000882319F083E08093C50083E026C08091F1
:1006C000C2008C7F8093C20084E68093C000809338
:1006D000C1009091380180912F01992329F088233E
:1006E00029F093E09093C50081110EC084EF91E052
:1006F000909325018093240180911D01886080934F
:100700001D0185E08093C50082E0809360008091A8
:10071000D2008F5F8093D200089580912401909140
:100720002501893E9340C8F080911D01877F809309
:100730001D0110922501109224011092C500089508
:1007400084EF91E0909325018093240180911D0115
:10075000886080931D0185E0AECF0895EF92FF92EF
:100760000F931F93CF93DF93CDB7DEB7E7970FB605
:10077000F894DEBF0FBECDBF8C01FC012381348114
:100780008281232B09F469C083FF27C08370E82F7F
:10079000F0E0EE0FFF1FEF59FF4F81818F938081B3
:1007A0008F93F80180811F928F9388E790E09F9349
:1007B0008F93CE0101967C01FF928F930E941311BB
:1007C000C7010E942C02F801438154816281637049
:1007D00020E080810E94660D37C082FF3AC083709E
:1007E000E82FF0E0EE0FFF1FEF59FF4F81818F934D
:1007F00080818F93F80180811F928F9382E990E02E
:100800009F938F93CE0101967C01FF928F930E945C
:100810001311C7010E942C02F8016381748180E0EA
:1008200090E00E9419102FE832EC45E75EE30E9449
:10083000850F0E94ED0FF8013281337020E0AB018B
:10084000632F80810E94CC0C0FB6F894DEBF0FBEE0
:10085000CDBFF8011482138219C0982F9C7049F4FF
:1008600083700E94AE05F801618180810E949D0520
:100870000DC00E94D205882349F088E791E00E94CC
:10088000300EF8018281877F8B7F8283E7960FB6D7
:10089000F894DEBF0FBECDBFDF91CF911F910F91B6
:1008A000FF90EF9008950E94F4020E943902809117
:1008B000CB00882319F086EC90E010C08091C50031
:1008C000882319F080EC90E009C080916E008823A5
:1008D00019F089E690E002C08CEC90E00C94AE0335
:1008E000089508950895089580910401843010F0CA
:1008F00010920401089584E080930401089587B361
:100900008C7787BB88B38C7788BB8091EF0083FF9F
:1009100002C0BF9AC79A8091EF0084FF02C0B99AC3
:10092000C19A8091EF0085FF02C0B89AC09A84B343
:100930008F7884BB85B38F7885BB24B38091EF001B
:1009400030E1839FC00111248077822B84BB25B3C3
:100950008091EF0030E1839FC00111248077822BCA
:1009600085BB80910401811106C081E09091EF0068
:10097000911101C080E08093040108958093EF00FD
:100980000C947F04C098B898000086B38170909151
:10099000EF0095FF02C0B89AC09A0895AE98A69845
:1009A000000083B380749091EF0092FF02C0A69A7A
:1009B000AE9A089590937700809376000895CF9330
:1009C00080913C018333C0F00E94C204C82F0E9472
:1009D000CE049091F0009C1304C090914D019817A3
:1009E00049F0C093F00080934D01E0917600F091C2
:1009F0007700099510923C01CF91089536990AC06D
:100A0000806487B986ED86B93699FECF349A84B171
:100A100095B1089580E090E00895806487B986EDEF
:100A200086B90895369943C08091E50090E08730FB
:100A3000910598F5FC01EF5CFF4F84B195B10C94E2
:100A4000EC10909351018093500186E423C0909361
:100A500056018093550185E41DC090934701809312
:100A6000460183E417C09093100180930F0182E444
:100A700011C0909336018093350180E40BC09093B0
:100A800044018093430181E405C090930E0180935B
:100A90000D0187E487B986ED86B98091E50086303F
:100AA00019F41092E50008958F5F8093E500089592
:100AB0001F920F920FB60F9211248F939F938091E4
:100AC0004B0190914C01019690934C0180934B0106
:100AD000809141019091420101969093420180934F
:100AE00041019F918F910F900FBE0F901F9018950D
:100AF0001F920F920FB60F9211248F939F938091A4
:100B00003D0190913E01019690933E0180933D01FD
:100B1000809117019091180101969093180180938C
:100B200017019F918F910F900FBE0F901F901895F6
:100B300090937500809374000895893C08F088ECC8
:100B400090E09093F6008093F500693C08F068EC23
:100B500070E07093F4006093F30008958093D400E4
:100B60002FEF280F91E0223008F090E09093D8000A
:100B70008D7F91E0813009F090E09093D700089547
:100B8000292F221F2227221F2093D800771F772783
:100B9000771F7093D7001816190614F08195619588
:100BA0000C949D059091EE00937081E009F080E037
:100BB00008951092F6001092F5001092F400109231
:100BC000F300109200011092FF0010923B0110926E
:100BD0003A018091EE008E7F8D7F8093EE008093AE
:100BE0004F01E0917400F09175000994633D08F0A5
:100BF00062ED70E07093160160931501833D08F07B
:100C000082ED90E090930601809305010895809312
:100C1000D6006093D5008093D8006093D7008823D6
:100C200011F0AA9A01C0AA98662311F0AB9A089510
:100C3000AB9808959091FA00992321F099B79068A4
:100C400099BFF8CF6F7370E070638F7320E4829F59
:100C5000C0011124682B792B70931A01609319013C
:100C60008091F90080648093F90008951F920F929B
:100C70000FB60F9211248F939F938091730082304F
:100C8000B0F58091E4008823D1F08C3338F4809162
:100C900033019091340196FF07C008C08091330161
:100CA0009091340196FF02C0979803C082B3805898
:100CB00082BB8091E40081508093E40030C0809139
:100CC000FA009798882359F180913301909134016B
:100CD000880F991F909334018093330188E78093A4
:100CE000E4008091FA0081508093FA0018C080914E
:100CF000FE00882391F08091F90080FD05C088B343
:100D000090E4892788BB03C085B3805885BB809158
:100D1000FE0081508093FE0002C0C69AAF9A9F9158
:100D20008F910F900FBE0F901F9018951F920F92EA
:100D30000FB60F9211248F9380917300833011F0BE
:100D4000863079F48091F90084FD0BC08091F90020
:100D500085FF07C0B29905C080914E018F5F8093D7
:100D60004E0186B38091F9008D7F8093F9008F91B9
:100D70000F900FBE0F901F90189590937200809364
:100D8000710008959093700080936F000895809192
:100D9000110190911201029708F43CC18091F90071
:100DA00084FD19C180917300823009F467C028F472
:100DB000882369F0813091F014C1853009F4AFC007
:100DC000863009F4C5C0833009F00BC16FC089B704
:100DD0008F7789BF9798C69AAF9A03C18091FA001E
:100DE00081112AC08091F90086FF14C080911901F9
:100DF00090911A0190933401809333018EE0809397
:100E0000FA008091F9008F7B8093F90089B78068A0
:100E100089BF06C089B78F7789BF9798C69AAF9A5E
:100E20008091E30091E0980F9093E300843138F0D3
:100E300082E08093730003C089B7806889BF809186
:100E4000F90083FFCEC0E0917100F09172008091B3
:100E50005201909153010995809152019091530153
:100E6000909302018093010110925301109252015C
:100E70008091F900877F8093F900B3C089B78F779D
:100E800089BF9798C69AAF9A1092FE0010924E01B1
:100E90001092E2001092E1008091F9008E7F806252
:100EA0008093F90083E08093E30077C08091FE0097
:100EB000811110C08091E30091E0980F9093E300BE
:100EC000833040F089B7806889BF88E28093FE0054
:100ED0001092E30080912F01882321F080914E0130
:100EE000823020F480914E01863038F010924E010D
:100EF00081E080932F0185E050C08091E1009091C6
:100F0000E2009C012F5F3F4F3093E2002093E1000D
:100F10000E9708F466C010922F0185E051C089B782
:100F20008F7789BF9798C69AAF9A1092FE00109259
:100F30004E011092E2001092E1008091F900816070
:100F400080628093F90083E08093E30086E025C00F
:100F50008091FE00811110C08091E30091E0980F14
:100F60009093E300833040F089B7806889BF88E2BE
:100F70008093FE001092E30080913801882321F0D5
:100F800080914E01823020F480914E01863040F0F5
:100F900010924E0181E0809338018093730021C04C
:100FA0008091E1009091E2009C012F5F3F4F3093D0
:100FB000E2002093E1000E97A0F01092380181E04A
:100FC0008093730089B78F7789BF9798C69AAF9A35
:100FD0001092FE0006C01092E2001092E100109202
:100FE000E30090912F012091E000809138012913B6
:100FF00004C02091DF00281749F09093E00080930F
:10100000DF00E0916F00F0917000099510921201DD
:101010001092110108951092730089B78F7789BFDC
:101020009798C69AAF9A1092380110922F0108959E
:1010300089B78F7789BF9798C69AAF9A109238016F
:1010400010922F0181E08093730008958E989698F6
:10105000BB98C398C698AF9808958E9A969ABB98F5
:10106000C39808958E989698BB9AC39A08958E9ABD
:10107000969ABB9AC39A0895C49A809104018430C9
:1010800018F483E0809304010895C49880910401CA
:10109000843060F4811107C081E09091EF009111DC
:1010A00003C080E001C081E08093040108951F9295
:1010B0000F920FB60F9211242F933F934F935F938C
:1010C0006F937F938F939F93AF93BF938091EC0027
:1010D0009091ED0001969093ED008093EC0080914B
:1010E00045018F5F809345018091480191E0980F01
:1010F00090934801893008F447C180911D0180FF19
:1011000009C080911E0190911F01019690931F01CB
:1011100080931E0180911D0181FF09C080912001F3
:10112000909121010196909321018093200180915B
:101130001D0182FF09C08091220190912301019637
:10114000909323018093220180911D0183FF09C0A8
:10115000809124019091250101969093250180931F
:10116000240180911D0184FF09C080912601909186
:1011700027010196909327018093260180911D01FC
:1011800085FF09C0809128019091290101969093D3
:1011900029018093280180911D0186FF09C080915B
:1011A0002A0190912B01019690932B0180932A01A3
:1011B00080911D0187FF09C080912C0190912D0124
:1011C000019690932D0180932C018091390191E03B
:1011D000980F90933901893CE8F080911701909124
:1011E000180190934A0180934901809141019091A7
:1011F0004201909308018093070110921801109208
:101200001701109242011092410181E08093030185
:101210001092390140910401433008F052C042302D
:1012200081F58091EF00811120C08091DD009091C7
:10123000DE009C012F5F3F4F3093DE002093DD00E6
:1012400068EC70E00E94B610892BD9F5213A3F4036
:1012500028F0B998C1981092040129C087B3842757
:1012600087BB88B3842788BB2CC084FD02C0B99893
:10127000C1981092DE001092DD0081E0809304019D
:1012800020C08091DD009091DE00813E2EE2920729
:1012900098F0413049F4109204018091EF0084FDF0
:1012A00006C0B998C19803C082E0809304011092EF
:1012B000DE001092DD0005C001969093DE00809361
:1012C000DD008091110190911201039748F4809103
:1012D00011019091120101969093120180931101D6
:1012E00080913101873318F48F5F809331018091B1
:1012F0003C01843328F480913C018F5F80933C0152
:101300008091370191E0980F909337018330D0F1AD
:1013100040913201242F30E0809115019091160107
:101320002817390759F02817390714F44F5F01C0FF
:10133000415040933201809132018ABD4091540165
:10134000242F30E08091050190910601281739077C
:1013500059F02817390714F44F5F01C041504093EA
:1013600054018091540188BD80915401811104C0C1
:1013700080913201882319F082EA8FBD01C01FBC21
:1013800010923701109248013091F90033FD47C0A7
:101390008091DB009091DC002091DA002F5F209398
:1013A000DA00263198F096FD0AC095FF08C09093A8
:1013B000530180935201832F88608093F9008091BC
:1013C000F9008F7E8093F90080E090E04091D90091
:1013D00036B3342732FF1FC0342F30953093D900F5
:1013E000273040F48091F9008F7E8093F90080E0EF
:1013F00090E004C0009711F02F3068F02091F900C0
:1014000020612093F90096FD02C0880F991F32FFDA
:1014100081601092DA009093DC008093DB00BF9132
:10142000AF919F918F917F916F915F914F913F917C
:101430002F910F900FBE0F901F901895109245019D
:10144000909145019817E0F30895CF93DF93EC0155
:10145000209729F08AE00E941E0A2197F9CFDF9198
:10146000CF910895019710F00000FCCF0895C82F88
:10147000F89497980E942608109206011092050190
:101480001092160110921501109200011092FF00A7
:1014900010923B0110923A011092540110923201C5
:1014A0001ABC18BC1FBC0E94450887E593E00E9447
:1014B000300E8CE193E00E94300E8FEF8C0F823063
:1014C000C0F482EF92E00E94300E80EE92E00E9423
:1014D000300EC13019F48BED92E002C085ED92E040
:1014E0000E94300E84EA92E00E94300E85E692E07F
:1014F0000CC0C33061F488E492E00E94300E88E1B1
:1015000092E00E94300E81EE91E00E94300E8BEB53
:1015100091E00E94300ED6E3D093EF000E947F044A
:10152000CAE080E090E80E94320AC150D1F71092E0
:10153000EF000E947F04CAE08FEF9FEF0E94320A03
:10154000C150D1F7E9CF80913101823308F475C0E1
:101550001092310120912E018091550190915601F8
:1015600021113CC04091EE00833023E0920738F413
:10157000209146013091470123303340E0F08091C3
:1015800030018F5F809330018AE080932E011092AA
:101590000601109205011092160110921501109289
:1015A00000011092FF0010923B0110923A0144603A
:1015B0004093EE000895242F2B7F2093EE0020917E
:1015C000FB00253628F0109230011092FB0006C077
:1015D00020913001233010F083E014C0863991054A
:1015E00098F48091070190910801892B69F480910A
:1015F000F5009091F600892B39F0809154018739DC
:1016000018F081E00E94370A8091460190914701CD
:101610008639910590F48091490190914A01892B76
:1016200061F48091F3009091F400892B31F0809166
:101630003201873910F082E0E5CF809103018823E1
:1016400009F48EC180912E01811185C180913001F4
:10165000882331F08091FB008F5F8093FB0002C0F4
:101660001092FB004091EE0041FF39C020914B01E8
:1016700030914C018091F1009091F20028173907C8
:1016800088F01092F6001092F5001092000110926E
:10169000FF001092060110920501842F8D7F809328
:1016A000EE001DC020914B0130914C018091090149
:1016B00090910A012817390790F08091F5009091D8
:1016C000F600969587959093F6008093F5004697DF
:1016D00030F486E190E09093F6008093F50040911D
:1016E000EE0040FF39C020913D0130913E018091D4
:1016F0001301909114012817390788F01092F40013
:101700001092F30010923B0110923A0110921601D0
:1017100010921501842F8E7F8093EE001DC02091C2
:101720003D0130913E0180913F0190914001281789
:10173000390790F08091F3009091F4009695879589
:101740009093F4008093F300469730F486E190E0A4
:101750009093F4008093F3008091D8009091D6008C
:10176000891307C02091D7009091D500291709F45B
:1017700051C04091F5005091F6002091F300309156
:10178000F4004115510519F42115310501F150936B
:10179000F8004093F70030930C0120930B01109256
:1017A000F6001092F5001092F4001092F3001092DF
:1017B0001601109215011092060110920501109267
:1017C00000011092FF0010923B0110923A019FB568
:1017D000911120C06091D7000E9407062091F70068
:1017E0003091F8003093F6002093F50080910B01C2
:1017F00090910C019093F4008093F3003695279517
:10180000309300012093FF009695879590933B01BC
:1018100080933A012091F5003091F6008091070104
:1018200090910801A901481B590BCA014091FF0082
:1018300050910001840F951F853A51E0950714F0EF
:1018400084EA91E0909300018093FF008091FF0073
:10185000909100018C359E4F34F48CE59EEF90936F
:1018600000018093FF008091070190910801892B6E
:1018700031F4232B21F4109200011092FF0080918B
:10188000FF009091000197FD019695958795833D06
:10189000910514F082ED90E090930601809305018C
:1018A000809105019091060197FF04C010920601F6
:1018B000109205012091F3003091F40080914901CC
:1018C00090914A01A901481B590BCA0140913A0164
:1018D00050913B01840F951F853A51E0950714F014
:1018E00084EA91E090933B0180933A0180913A0120
:1018F00090913B018C359E4F34F48CE59EEF909394
:101900003B0180933A018091490190914A01892BD2
:1019100031F4232B21F410923B0110923A01809173
:101920003A0190913B0197FD019695958795833DEE
:10193000910514F082ED90E09093160180931501CB
:10194000809115019091160197FF08C01092160121
:101950001092150103C0815080932E011092030153
:101960008091EE0090914F01981739F080934F01CC
:10197000E0917400F091750009940895D49ADC9A6E
:101980000895DC98D49808950E9412050E94C70615
:101990000E94DF040C94A30AEF92FF921F93CF934F
:1019A000DF931F92CDB7DEB7162F7A019091EE002C
:1019B000916092609093EE001092400110923F016E
:1019C00010920A0110920901873180F046EF5FEF13
:1019D000481B5109440F551F4E0D5F1D5093400188
:1019E00040933F0150930A0140930901A7014250DF
:1019F000510950931401409313015093F200409306
:101A0000F10098E2E916F104C0F444E150E050938B
:101A10001401409313015093F2004093F1004AE007
:101A200050E05093400140933F0150930A0140938E
:101A30000901A8E2EA2EF12C05C0E0E9EE16E1E08A
:101A4000FE0698F4893288F0A70156954795569579
:101A50004795C701841B950B9093400180933F01EC
:101A600090930A018093090188E210924C01109230
:101A70004B0110923E0110923D01682F29830E9474
:101A80009D05812F0E94AE05F0921C01E0921B0182
:101A9000F092FD00E092FC008091EE0080934F01F7
:101AA000E0917400F091750009952981222339F0A5
:101AB0000E94D205811103C00E94C40CF9CF0F907F
:101AC000DF91CF911F91FF90EF900895FF920F93B8
:101AD0001F93CF93DF93182FF62E022F8091EE00E5
:101AE000816082608093EE009A01A0EBB2E00E94D8
:101AF000A71024E630E040E050E00E94CA10E9015F
:101B0000C901845691099093400180933F019093BD
:101B10000A0180930901309314012093130130933B
:101B2000F2002093F10028323105B0F444E150E096
:101B300050931401409313015093F2004093F1002D
:101B40004AE050E05093400140933F0150930A0116
:101B500040930901C8E2D0E0612F812F0E949D05CA
:101B60008F2D0E94AE0510924C0110924B011092E5
:101B70003E0110923D01D0931C01C0931B01D093F4
:101B8000FD00C093FC008091EE0080934F01E09136
:101B90007400F09175000995002339F00E94D20578
:101BA000811103C00E94C40CF9CFDF91CF911F9126
:101BB0000F91FF9008951BBA18BA15BA81E082BB45
:101BC0001ABA88E587BB8CE884BB82EF81BBF894A6
:101BD000C598BD9A97980E94260810BC8CE089B9D8
:101BE0001BB886E880BD88E98AB917B886E186B94E
:101BF00010BE85E085BF80EE8BBF14BE8AE083BF38
:101C000083E68CBF82EA8FBD81E18EBD82ED90E0DC
:101C100097BD86BD1ABC18BC60E080E00E94070634
:101C200089E085BD8EE683BD82E089BF8091F900A1
:101C300081608093F90081E0809373007894089527
:101C40005D9BFECF8CB90895CF93DF93EC01899112
:101C5000882319F00E94200EFACFDF91CF910895CA
:101C6000CF93DF93FC018491EF012196882321F02B
:101C70000E94200EFE01F7CFDF91CF9108950F93C0
:101C80001F93CF93DF931F92CDB7DEB78C01040F64
:101C9000111DF80181918F01882341F0662331F0F5
:101CA00069830E94200E69816150F3CF0F90DF910C
:101CB000CF911F910F910895CF93DF93CDB7DEB7EA
:101CC00061970FB6F894DEBF0FBECDBF462F50E030
:101CD000BE016F5F7F4F0E94F210CE0101960E94FD
:101CE000240E61960FB6F894DEBF0FBECDBFDF9114
:101CF000CF910895EF92FF920F931F93CF93DF93AD
:101D0000CDB7DEB761970FB6F894DEBF0FBECDBF7B
:101D1000E42E462F50E08E010F5F1F4FB8010E9446
:101D2000F210F80101900020E9F73197E01BF10B68
:101D3000FE2CFE1A1F1454F4FA9480E30E94200E25
:101D4000F110FACFC8010E94240E06C04F2D419514
:101D50006E2DC8010E943F0E61960FB6F894DEBF4B
:101D60000FBECDBFDF91CF911F910F91FF90EF90EC
:101D700008951F920F920FB60F9211242F938F93F5
:101D80009F93EF93FF939091E6008091E700292FB6
:101D9000281B2032A8F4E091E80081E08E0F8093A8
:101DA000E800F0E02CB1E85AFE4F20839F5F90934B
:101DB000E600813210F01092E8001092570106C040
:101DC0008CB18093EB0081E080935701FF91EF91FC
:101DD0009F918F912F910F900FBE0F901F9018958C
:101DE000109257018091E7009091E6009817A1F0BA
:101DF0008F5F8093E7008091E900813210F01092AC
:101E0000E900E091E90081E08E0F8093E900F0E0C5
:101E1000E85AFE4F8081089580E00895109257019E
:101E2000282FFC018E2F821B9091E7003091E60055
:101E30003917B9F08617A8F49F5F9093E700A09137
:101E4000E90081E08A0F8093E900B0E0A85ABE4F14
:101E50008C9181938091E900813220F31092E90006
:101E6000E1CF08958091E6009091E700891B0895E5
:101E700057988CB18093EA001092E9001092E80024
:101E80001092E7001092E60010925701579A0895B9
:101E90000E94DB0D8DE591E00E94300E80E491E020
:101EA0000E94300E82E291E00E94300E84E091E0C8
:101EB0000E94300E8EED90E00E94300E8BEB90E091
:101EC0000E94300E84E990E00E94300E80E790E09E
:101ED0000E94300E8FE30E94BE0484EC99E00E94C1
:101EE000250A84E20E94BE0486E092E00E94DA04A1
:101EF0008CED91E00E94C2060E943C080E943208CC
:101F00000E9453040E94C40CFBCF0CD0E6C0DED06C
:101F100040F0D5D030F021F45F3F19F0C7C0511127
:101F200010C1CAC0EBD098F39923C9F35523B1F37C
:101F3000951B550BBB27AA2762177307840738F038
:101F40009F5F5F4F220F331F441FAA1FA9F333D097
:101F50000E2E3AF0E0E830D091505040E695001C4B
:101F6000CAF729D0FE2F27D0660F771F881FBB1F07
:101F7000261737074807AB07B0E809F0BB0B802DE1
:101F8000BF01FF2793585F4F2AF09E3F510568F02D
:101F90008DC0D7C05F3FECF3983EDCF38695779514
:101FA0006795B795F7959F5FC9F7880F911D96952F
:101FB000879597F90895E1E0660F771F881FBB1F8B
:101FC000621773078407BA0720F0621B730B840B38
:101FD000BA0BEE1F88F7E095089598D088F09F57C8
:101FE00090F0B92F9927B751A0F0D1F0660F771F65
:101FF000881F991F1AF0BA95C9F712C0B13081F045
:102000009FD0B1E008959CC0672F782F8827B85FD4
:1020100039F0B93FCCF3869577956795B395D9F7A5
:102020003EF490958095709561957F4F8F4F9F4FAF
:102030000895E89409C097FB3EF4909580957095BB
:1020400061957F4F8F4F9F4F9923A9F0F92F96E904
:10205000BB279395F695879577956795B795F11179
:10206000F8CFFAF4BB0F11F460FF1BC06F5F7F4F16
:102070008F4F9F4F16C0882311F096E911C0772328
:1020800021F09EE8872F762F05C0662371F096E831
:10209000862F70E060E02AF09A95660F771F881F00
:1020A000DAF7880F9695879597F9089597F99F67BE
:1020B00080E870E060E008959FEF80EC08950024D0
:1020C0000A941616170618060906089500240A949D
:1020D00012161306140605060895092E0394000C23
:1020E00011F4882352F0BB0F40F4BF2B11F460FFB2
:1020F00004C06F5F7F4F8F4F9F4F089557FD9058DB
:10210000440F551F59F05F3F71F04795880F97FBBB
:10211000991F61F09F3F79F0879508951216130675
:102120001406551FF2CF4695F1DF08C016161706A4
:102130001806991FF1CF86957105610508940895D9
:10214000E894BB2766277727CB0197F90895A29FCC
:10215000B001B39FC001A39F700D811D1124911D7B
:10216000B29F700D811D1124911D0895AA1BBB1BE8
:1021700051E107C0AA1FBB1FA617B70710F0A61B87
:10218000B70B881F991F5A95A9F780959095BC01A8
:10219000CD010895A1E21A2EAA1BBB1BFD010DC0A3
:1021A000AA1FBB1FEE1FFF1FA217B307E407F50707
:1021B00020F0A21BB30BE40BF50B661F771F881FE3
:1021C000991F1A9469F760957095809590959B0179
:1021D000AC01BD01CF010895EE0FFF1F0590F491F2
:1021E000E02D0994FB019F01E8944230C4F0453290
:1021F000B4F44A3029F497FB1EF4909581959F4FD3
:10220000642F77270E94B610805D8A330CF0895DB9
:102210008193CB010097A1F716F45DE251931082F0
:10222000C9010C941D13AEE0B0E0E9E1F1E10C94BA
:10223000CB130D891E8986E08C831A8309838FEF67
:102240009FE79E838D83AE01475E5F4F6F89788DD8
:10225000CE0101960E943511EF81F885E00FF11F44
:1022600010822E96E4E00C94E713ACE0B0E0EBE3D0
:10227000F1E10C94BD137C016B018A01FC01178212
:102280001682838181FFBDC1CE0101964C01F70109
:102290009381F60193FD859193FF81916F018823CE
:1022A00009F4ABC1853239F493FD859193FF819197
:1022B0006F01853229F4B70190E00E942D13E7CF1A
:1022C000512C312C20E02032A0F48B3269F030F414
:1022D000803259F0833269F420612CC08D3239F09C
:1022E000803339F4216026C02260246023C0286036
:1022F00021C027FD27C030ED380F3A3078F426FF93
:1023000006C0FAE05F9E300D1124532E13C08AE000
:10231000389E300D1124332E20620CC08E3221F4F1
:1023200026FD6BC1206406C08C3611F4206802C003
:10233000883641F4F60193FD859193FF81916F01F9
:102340008111C1CF982F9F7D9554933028F40C5F55
:102350001F4FFFE3F9830DC0833631F0833771F0EF
:10236000833509F05BC022C0F801808189830E5F4C
:102370001F4F44244394512C540115C03801F2E0FE
:102380006F0E711CF801A080B18026FF03C0652D7F
:1023900070E002C06FEF7FEFC5012C870E9412131F
:1023A0002C0183012C852F77222E17C03801F2E0F3
:1023B0006F0E711CF801A080B18026FF03C0652D4F
:1023C00070E002C06FEF7FEFC5012C870E940713FA
:1023D0002C012C852068222E830123FC1BC0832D19
:1023E00090E048165906B0F4B70180E290E00E94F0
:1023F0002D133A94F4CFF50127FC859127FE8191A6
:102400005F01B70190E00E942D1331103A94F1E082
:102410004F1A51084114510471F7E5C0843611F088
:10242000893639F5F80127FF07C060817181828103
:1024300093810C5F1F4F08C060817181882777FDF1
:102440008095982F0E5F1F4F2F76B22E97FF09C0F1
:1024500090958095709561957F4F8F4F9F4F206825
:10246000B22E2AE030E0A4010E945F13A82EA81823
:1024700044C0853729F42F7EB22E2AE030E025C0F3
:10248000F22FF97FBF2E8F36C1F018F4883579F01E
:10249000B4C0803719F0883721F0AFC02F2F2061EA
:1024A000B22EB4FE0DC08B2D8460B82E09C024FF5F
:1024B0000AC09F2F9660B92E06C028E030E005C004
:1024C00020E130E002C020E132E0F801B7FE07C0B1
:1024D00060817181828193810C5F1F4F06C0608192
:1024E000718180E090E00E5F1F4FA4010E945F1396
:1024F000A82EA818FB2DFF77BF2EB6FE0BC02B2DE4
:102500002E7FA51450F4B4FE0AC0B2FC08C02B2DD7
:102510002E7E05C07A2C2B2D03C07A2C01C0752C81
:1025200024FF0DC0FE01EA0DF11D8081803311F4FE
:10253000297E09C022FF06C07394739404C0822FC1
:10254000867809F0739423FD13C020FF06C05A2C2F
:10255000731418F4530C5718732C731468F4B701E0
:1025600080E290E02C870E942D1373942C85F5CF88
:10257000731410F4371801C0312C24FF12C0B701B6
:1025800080E390E02C870E942D132C8522FF17C03A
:1025900021FF03C088E590E002C088E790E0B70122
:1025A0000CC0822F867859F021FD02C080E201C064
:1025B0008BE227FD8DE2B70190E00E942D13A51458
:1025C00038F4B70180E390E00E942D135A94F7CFBE
:1025D000AA94F401EA0DF11D8081B70190E00E94F8
:1025E0002D13A110F5CF332009F451CEB70180E2AD
:1025F00090E00E942D133A94F6CFF70186819781DF
:1026000002C08FEF9FEF2C96E2E10C94D913FC01EE
:102610000590615070400110D8F7809590958E0F0D
:102620009F1F0895FC016150704001900110D8F780
:10263000809590958E0F9F1F0895DC01FC01672FF8
:1026400071917723E1F7329704C07C916D93708389
:102650006291AE17BF07C8F308950F931F93CF93EE
:10266000DF93182F092FEB018B8181FD03C08FEFC2
:102670009FEF20C082FF10C04E815F812C813D8181
:10268000421753077CF4E881F9819F012F5F3F4F88
:1026900039832883108306C0E885F985812F099541
:1026A000892B29F72E813F812F5F3F4F3F832E8358
:1026B000812F902FDF91CF911F910F910895FA01F3
:1026C000AA27283051F1203181F1E8946F936E7F71
:1026D0006E5F7F4F8F4F9F4FAF4FB1E03ED0B4E062
:1026E0003CD0670F781F891F9A1FA11D680F791FA3
:1026F0008A1F911DA11D6A0F711D811D911DA11DB4
:1027000020D009F468943F912AE0269F11243019C3
:10271000305D3193DEF6CF010895462F4770405D5E
:102720004193B3E00FD0C9F7F6CF462F4F70405D0D
:102730004A3318F0495D31FD4052419302D0A9F768
:10274000EACFB4E0A6959795879577956795BA9562
:10275000C9F700976105710508959B01AC010A2E28
:1027600006945795479537952795BA95C9F7620FFF
:10277000731F841F951FA01D08952F923F924F92A3
:102780005F926F927F928F929F92AF92BF92CF9201
:10279000DF92EF92FF920F931F93CF93DF93CDB70A
:1027A000DEB7CA1BDB0B0FB6F894DEBF0FBECDBF82
:1027B00009942A88398848885F846E847D848C8453
:1027C0009B84AA84B984C884DF80EE80FD800C815C
:1027D0001B81AA81B981CE0FD11D0FB6F894DEBF3F
:0C27E0000FBECDBFED010895F894FFCFAF
:1027EC0002AC00B000B400B900F4F40000000173B6
:1027FC000472040171047004726F746174653A2080
:10280C0025642073706565643B20257320646972B0
:10281C003B0020206D6F76653A202564207370652F
:10282C0065643B202573206469723B004657440065
:10283C00425744004C454654005249474854000006
:00000001FF
